:020000040800F2
:10000000F00E002055020008D54A00088D44000873
:10001000D14A0008D5220008A54B000800000000C6
:10002000000000000000000000000000DD4A0008A1
:10003000C526000800000000D94A0008E14A00086F
:100040006F0200086F0200086F0200086F020008CC
:100050006F0200086F0200086F0200086F020008BC
:100060006F0200086F0200086F0200086F020008AC
:100070006F0200086F020008AD2600086F0200083A
:10008000B92600086F0200086F0200086F0200081E
:100090006F0200086F0200086F0200086F0200087C
:1000A0006F0200086F0200086F0200086F0200086C
:1000B0006F0200086F0200086F0200086F0200085C
:1000C0006F0200086F0200086F0200086F0200084C
:1000D0006F0200086F0200086F0200086F0200083C
:1000E0006F0200086F0200086F0200086F0200082C
:1000F0006F0200086F0200086F0200086F0200081C
:100100006F0200086F0200086F0200086F0200080B
:100110006F0200086F0200086F0200086F020008FB
:100120006F0200086F0200086F0200086F020008EB
:100130006F0200086F0200086F0200086F020008DB
:100140006F0200086F0200086F0200086F020008CB
:100150006F0200086F0200086F0200086F020008BB
:100160006F0200086F0200086F0200086F020008AB
:100170006F0200086F0200086F0200080000000014
:100180006F0200086F02000800F002F800F052F859
:1001900014A696E8000CB244B344DA4501D100F04D
:1001A00049F8BAE80F000FA696E83000A5EB040561
:1001B00004EB0607AAEB0704A7F101074FEA1515A0
:1001C0004FEA3414A4F10104AC4201D300F032F838
:1001D00013F0010F18BFFB1A43F0010300F001F800
:1001E000DBE7184798550000B8550000103A24BFC7
:1001F00078C878C1FAD8520724BF30C830C144BF8C
:1002000004680C6070470000704700000023002461
:1002100000250026103A28BF78C1FBD8520728BF16
:1002200030C148BF0B6070471FB505F0B9F91FBD5D
:1002300010B510BD02F018F81146FFF7F5FF04F0F5
:10024000B3FC02F036F803B4FFF7F2FF03BC02F090
:1002500039F800000948804709480047FEE7FEE7F3
:10026000FEE7FEE7FEE7FEE7FEE7FEE7FEE7FEE766
:1002700004480549054A064B70470000914B0008A9
:1002800089010008F0080020F00E0020F00A00208C
:10029000F00A00202DE9F041DFF8B88B98F80070E3
:1002A0000646DFF8B40B02685208520002604FF6AF
:1002B000F070DFF8A82B13680024002503404CF2EF
:1002C00040218B421FBF126810404CF270239842AD
:1002D00015D1DFF88C1B086888B9DFF8880B026835
:1002E000C2F30B02B2F58A6F1FBF0068C0F30B00A8
:1002F00040F28342904208BFDFF86C2B01D0DFF858
:100300006C2B0120906090680028FCD1DFF8603BE6
:1003100013601068DFF85C2B904208BF0125402174
:1003200006F10C0001F040FF002D1ABFDFF8440B6E
:1003300070647464B46134617461F4607462F46113
:1003400034627189B1863089F0863464308801283E
:1003500002D0B8B302246AE0380068D108F104037F
:100360004020DFF8141BDFF8842D1D6802EA0557D2
:1003700001EA050C6744C5F30955EF191F605D6874
:1003800002EA055701EA050C6744C5F30955EF1960
:100390005F609D6802EA055701EA050C6744C5F3F2
:1003A0000955EF199F60DD6802EA055701EA050C5F
:1003B0006744C5F30955EF19DF601033401ED4D1EF
:1003C000012734E0012F32D108F104034020DFF887
:1003D000A81ADFF8182D1D6802EA055701EA050C76
:1003E0006744C5F30955EF191F605D6802EA0557B8
:1003F00001EA050C6744C5F30955EF195F609D6874
:1004000002EA055701EA050C6744C5F30955EF19DF
:100410009F60DD6802EA055701EA050C6744C5F3F1
:100420000955EF19DF601033401ED4D100277088C2
:1004300030B1012811BF641C306C40F020003064E2
:10044000B08E012804BFF08E012803D1306C40F03B
:1004500040003064706828B1306C40F010003064A7
:100460007068F0620021318714B9306C80303064DC
:1004700088F800702046BDE8F0810000F0B581B03A
:1004800005462DED028B0E46686CDFF8E819002456
:10049000884218BF042040F0E380296C21F4807169
:1004A00029643288052A18BF062A1DD0072A18BFDA
:1004B000012A19D0022A1CBF032A042A14D00824B6
:1004C000B5F93800B6F90410884204BF288E90426E
:1004D00000F0BE80B6F9047017F10C0F5DDA6FF012
:1004E0000B00B0804034B1E02B8E9342E8D0090974
:1004F00042EA0111296401F00F0001F07001702936
:1005000025D1401E0628DBD8DFE800F01115191DA3
:1005100005090D00D4E7DFF8D80BA864DAE7DFF8A7
:10052000D41BA964D6E7DFF8D00BA864D2E7DFF8C4
:10053000CC1BA964CEE7DFF8C80BA864CAE7DFF8D4
:10054000C41BA964C6E7DFF8C00BA864C2E7401E5D
:100550000628B5D8DFE800F01115191D05090D00B2
:10056000AEE70FF25911A964B4E70FF26520A86451
:10057000B0E70FF2C531A964ACE70FF22150A864CF
:10058000A8E70FF2D161A964A4E70FF6F100A8640F
:10059000A0E70FF68131A9649CE7342F03DB3320F9
:1005A000B080403452E095F8400000F00F00401E4B
:1005B00006289FED848ADFED838A27D8DFE800F0E4
:1005C00013181D2204090E00B3EE008ADFED7E8AA7
:1005D0001CE0B2EE0C8ADFED7D8A17E0B2EE0A8AEB
:1005E000F2EE008A12E0B2EE068ADFEDD08A0DE06C
:1005F000B2EE048AF7EE008A08E0B2EE028ADFED7E
:10060000CC8A03E0B1EE0C8AF4EE008A384600EEA4
:10061000100AB8EEC00AF3EE040AC0EE200AB2EEE9
:10062000040A04F065FF60EE288ADFEDC20A70EE6E
:10063000C80AB0EE000A04F05BFF28EE800A04F05E
:1006400061FFBCEEC00A85ED0F0A2F87308828862F
:10065000708868861CB9286C40F480702864204635
:10066000BDEC028B01B0F0BD426CDFF808389A4255
:1006700001D004207047428E4A80038E0B80008F89
:1006800088800020704710B4134681B05A6CDFF8A0
:10069000E447A24218BF042006D11A6CD40506D440
:1006A0002020110658BF302001B010BC704703F164
:1006B0000C029B6C01B010BC184700002DE9F04FF4
:1006C000134686B08246D3F810E0D3F814809869B8
:1006D00004900C46DF69D3F808C0D968DFF82C0A0B
:1006E000039100255A6BD3F83090DFF8241A02F0FA
:1006F0001006029602F020020192DE8CDFF85427E9
:10070000002E4FD005945C8D012C05D15AF8026B58
:10071000019C54B176BA08E0E4B29AF800B01AF835
:1007200004600BEB06260AEB440A141D06F0FF0BCF
:1007300054F82B40E719C7F30904BB46171DC6F34D
:10074000072657F8267007EB9B27C7F3090646EAEA
:10075000044626FB01CB029CBF0A26FB00FCABF53E
:10076000006B4CB11C6ADE44AEEB080E5EFB14FE5F
:100770004FEA4E0ED846F3464FEA0B461FFA85FB6A
:1007800056FB19F4059E009624F38F041E8D06FB7C
:100790000BF6DDF800B02BF816406D1CDE8CACB209
:1007A000B442B0D3C3F808C00398D860DF61C3F87F
:1007B00010E0C3F814800498986106B00020BDE8EA
:1007C000F08F0000000000000000804226B4974136
:1007D0002DE9F04F84B007460C46106951699369C2
:1007E000DFF870A602934FF00008566BD369D2F879
:1007F0000890D2F80CC0D2F830E006F0100BCDF81B
:1008000004B006F020060096D68C002E00F0808002
:100810000394558D012D1FD13C78009DA5B108EBA7
:10082000D8756D10FE78B8EB450506D124027D78A9
:1008300004EB06446419BF1C1AE0BD78360206EBCF
:100840000546A4193F1D13E07E78BD78360206EBFD
:100850000546A419FF1C0BE0EDB27E5D17F81540AC
:10086000360206EB04463C7805EB450534192F4467
:100870000AF1040504F0FF06240A0AF1040B55F8F6
:10088000265004F0FF065BF8266005EB9325C5F3C0
:10089000090306EB9526C6F3090545EA0345240A34
:1008A0005BF82430DFF8684825FB04C403EB96238B
:1008B000DFF8D8CDC3F3090625FB0C9C06EB4609EF
:1008C0000CEB490C4FF0010B25FB0BF906EB460630
:1008D000019DB144A4F5D8543DB1156A2018401AC1
:1008E00050FB15F0400021460446A403168D54FB2E
:1008F0001EF5039C25F38F0506FB08F624F8165019
:1009000008F10104D58C1FFA84F8A845FFF681AFE1
:100910001061C2F80890C2F80CC0D361516102980E
:10092000906104B00020BDE8F08F000026B41740AD
:100930006F12033F000000422DE9F04F84B0824661
:100940000D46106951699369DFF8089502930026F6
:10095000576BD3699468D2F80CC0D2F8308007F096
:10096000100BCDF804B007F020070097D78C002FAC
:1009700000F087800395558D012D06D15AF804EBC0
:10098000009DBDB19EFA9EFE14E0EDB205EB450E52
:100990001AF80E701AF815E04FEA0E4E0EEB076EBD
:1009A0001AF805700EEB072E9AF800700EEB070E82
:1009B0000AEB850A09F104050EF0FF074FEA1E2E27
:1009C00009F1040B55F8275005EB93250EF0FF03B2
:1009D0005BF82330C5F3090703EB9523C3F309053F
:1009E00045EA07454FEA1E2E09F104070EF0FF0BFA
:1009F0004FEA1E2E57F82B7007EB932B09F10403D7
:100A0000CBF3090753F82E3003EB9B23C3F3090EF6
:100A10004EEA074EDFF8787C25FB07CC4FF4803B8D
:100A20002EFB0BC7DFF86CCCDFF86CBC25FB0C444D
:100A30002EFB0B4C012425FB04F4DFF8685D2EFB34
:100A40000544019DA7F580473DB1156A3818401A45
:100A500050FB15F04000394607467F03DDF80CE0F7
:100A6000B2F828B057FB18F5B7B225F38F050BFB8A
:100A700007F72EF81750761CD78CB5B2BD42FFF49D
:100A80007AAF10619460C2F80CC0D36151610298D2
:100A9000906104B00020BDE8F08F00002DE9F04F18
:100AA00085B007460C46106951699369DFF8A4A325
:100AB00003934FF00008566BD369D2F80890D2F830
:100AC0000CC0156B06F0100BCDF804B006F0200634
:100AD0000096D68C002E00F0B08004940295558DBF
:100AE000012D0AD13D1D3C68D5F800E0AF1C009DEA
:100AF000F5B164BA9EFA9EFE1AE0EDB205EB45062A
:100B0000BC5D17F81560360406EB04667C5D06EBE9
:100B1000042E3E780EEB060405EB850617F825E05B
:100B200017F806600EEB062E05EB450607EB4607A9
:100B30000AF1040B04F0FF05240A5BF8255005EBCD
:100B4000932504F0FF035BF82330C5F3090603EB9C
:100B50009523C3F3090545EA0645240A0AF104066C
:100B600004F0FF0B240A56F82BB056F824600BEB68
:100B7000932B06EB9B26CBF30903C6F3090444EA47
:100B800003440AF104030EF0FF0B53F82B300AF173
:100B9000040BCEF3072E03EB96235BF82EE0C3F392
:100BA00009060EEB9323C3F3090E4EEA064EDFF857
:100BB000F86B25FB06CCDFF8D86A24FB06CC4FF493
:100BC00080362EFB06C6DFF8E4CB25FB0C994FF0F0
:100BD0001B1B24FB0B99DFF8D8CB2EFB0C9C4FF092
:100BE000010925FB09F9DFF8BC5B24FB0599DFF857
:100BF000204D019D2EFB0499A6F558463DB1156A7E
:100C00003018401A50FB15F0400031460646029D50
:100C1000DDF810E0F60256FB15F5168D1FFA88F484
:100C200025F38F0574432EF8145008F10108D48C75
:100C30001FFA88F5A542FFF452AF1061C2F8089080
:100C4000C2F80CC0D36151610398906105B00020D7
:100C5000BDE8F08F2DE9F04F134684B08646D3F8F7
:100C60001080D3F8149098697A4A02904FF0000CE3
:100C7000DE8CDC69D3F808A0D3F80CB0186B002E1A
:100C800000F0D98003910190598D01290AD1FEE825
:100C9000020193F834600D46B1062AD540BA6DBA08
:100CA00027E000BF01EB41001EF800501EF81100C4
:100CB0009EF80060000400EB05601EF8015000EB98
:100CC0000520801901EB41067600C1EBC1071EF833
:100CD00006601EF80750360406EB056601EB810539
:100CE0001EF805701EF8215006EB072675190EEB4D
:100CF000C10E111D00F0FF0651F82670000A00F029
:100D0000FF013C19171DC4F3090657F8211001EB28
:100D10009424010AC4F3090040EA0640161D01F0BC
:100D2000FF07090A56F8277007EB9427141DC7F32D
:100D3000090654F8214004EB9724C4F3090141EA61
:100D40000641171D05F0FF0657F8266006EB9426AE
:100D50002C0A0096C6F3090504F0FF0657F8266032
:100D6000009F06EB9726C6F3090747EA054500965C
:100D7000240A171D04F0FF0657F82670009E07EBA3
:100D800096270097C7F30906171D240A57F8244031
:100D9000009F04EB9724C4F3090747EA0646DFF8EF
:100DA000747B20FB07BBDFF8007A21FB07BBDFF871
:100DB000E07825FB07BB4FF4803726FB07B7DFF849
:100DC00058BB20FB0BAA26FB1BAADFF850BB21FB5C
:100DD0000BAA25FB1BAB4FF0010A20FB0AFADFF838
:100DE000C40921FB00A0DFF8281BDFF8D4AC25FBE9
:100DF000010026FB0A0A186AA40AA7F5003740B1C9
:100E0000B844A8EB090858FB10F84FEA4808B9465F
:100E10004746019803991D8DBF0257FB10F020F340
:100E20008F0005FB0CF521F815000CF1010CD88C96
:100E30008445FFF629AFC3F808A0C3F80CB0DC6105
:100E4000C3F81080C3F814900298986104B0002091
:100E5000BDE8F08F00000020002000E000ED00E081
:100E6000002004E00010005C004C025800300240FA
:100E7000C2A507F4CDB5E8B500FC0F002DE9F04F91
:100E80000E46114684B00B694C698A6902924FF094
:100E90000009B1F826C0CA698D68D1F80C800F6BC3
:100EA000BCF1000F00F01681039600918446019773
:100EB0000098468D012E12D10CF10400061D016828
:100EC000DCF800E0306806F1020C009E96F8347001
:100ED000BE0637D59EFA9EFE49BA40BA32E0F6B257
:100EE00006EB46001CF800101CF816009CF800E009
:100EF000000400EB01601CF8061000EB01208644A2
:100F0000C6EBC60006EB46071CF800107F001CF875
:100F10000700000400EB016006EB86011CF801707D
:100F20001CF8261000EB072010EB010106EBC600B1
:100F30001CF800701CF8360000EB072006EB860753
:100F40000CEB470CDFF87CAB0EF0FF064FEA1E2ED1
:100F50005AF826700EF0FF0B5AF82B60BA18C2F33D
:100F6000090706EB92264FEA1E22C6F3090E4EEA47
:100F7000074E574602F0FF0A57F82AB0120A57F8F0
:100F80002270DFF8402B0BEB9626C6F3090A07EB1D
:100F90009627C7F3090646EA0A4601F0FF0A090A3E
:100FA000DFF820BB52F82A2001F0FF0A5BF82AA0E4
:100FB00002EB9722C2F309070AEB922A0A0ACAF344
:100FC000090141EA07415F4602F0FF0B57F82B7019
:100FD000DFF8F0BA120A5BF8222007EB9A27C7F372
:100FE000090A02EB9722C2F3090747EA0A47DA46E1
:100FF00000F0FF0BC0F307205AF82BB00BEB922B3D
:10100000DFF8C02A52F8202002EB9B22CBF3090A1A
:10101000C2F3090040EA0A40DFF8ACAADFF8F4B8EE
:101020002EFB0A8826FB0B88DFF87CA7DFF860B66A
:1010300021FB0A8827FB0B884FF4803A20FB0A8AA1
:10104000DFF8908CDFF890BC2EFB085526FB0B5583
:101050004FF04B1821FB0855DFF880BCDFF8808C7F
:1010600027FB0B5520FB085801252EFB05F5DFF863
:1010700034E726FB0E55DFF8986821FB0651DFF8B0
:10108000405ADFF8606C27FB051120FB061500981D
:10109000006A920AAAF57A3A30B153441B1B53FBFB
:1010A00010F35B0054469A46009F01983E8D4FEA2C
:1010B0004A2151FB10F0039920F38F0006FB09F63B
:1010C00021F8160009F101090098C18C8945FFF645
:1010D000EFAE01468D60C1F80C80CA610B614C61B6
:1010E0000298886104B00020BDE8F08F0000F03F56
:1010F000B51400086D1500089D160008B517000806
:1011000021190008CD1A0008FD1C00080300010089
:10111000010003002DE9F04F89B08146D2F810A0FC
:10112000D2F814B09069DFF8C04B07904FF0000878
:10113000D68CD569D2F808C0D2F80CE0106B002E1E
:1011400000F0A8810891019206900198468D012E29
:101150000DD1F9E80201019E96F83470F9E80223F6
:10116000BE065BD540BA49BA52BA5BBA56E0F6B28F
:1011700006EB460019F8001019F8160099F800203F
:10118000000400EB016019F8061000EB0120801844
:1011900006EB46025200C6EBC60319F8021019F816
:1011A000037006EB8603090419F8032019F82630AA
:1011B00001EB076101EB0221C91806EB86030B273F
:1011C0005B0017FB06F719F8033019F807201B041A
:1011D00003EB026306EBC60219F8027019F8362019
:1011E00003EB0723C6EB06179A1819F80730C6EB6E
:1011F000C6077F0019F807703F0407EB03670D234C
:1012000013FB06F319F8033007EB032706EB46033D
:101210009B0019F80330FB1809EB0619261D00F096
:10122000FF0756F827707E190096000AC6F30905D5
:10123000271D00F0FF0657F82660009F06EB972653
:10124000C6F3090747EA05470597000A271D00F07E
:10125000FF0557F82550000A05EB9625261DC5F316
:10126000090756F8206006EB9526C6F3090545EAFE
:101270000745049501F0FF07251D090A55F82700C9
:10128000271D00EB962001F0FF0657F8266006EBBD
:101290009026C0F30905C6F3090747EA05470397F7
:1012A000090A251D01F0FF07090A55F8270000EB80
:1012B0009620261DC0F3090556F8211001EB902158
:1012C000C1F3090646EA05460296251D02F0FF060F
:1012D000120A55F8260002F0FF0600EB9120211DAE
:1012E000C0F3090551F8261001EB9021C1F309065E
:1012F00046EA05460096120A251D02F0FF0655F83B
:101300002600120A00EB9120211DC0F3090551F8B7
:10131000221001EB9021C1F3090040EA0540221D93
:1013200003F0FF051B0A03F0FF0752F8256006EBE8
:101330009126211DC6F3090551F8272002EB9622BC
:10134000C2F3090141EA05411B0A251D03F0FF060E
:101350001B0A55F8267007EB9227221DC7F30906D2
:1013600052F82350DFF8843905EB9725C5F30902BD
:1013700042EA0642059EDFF8787926FB03E3049EE5
:1013800026FB0733039EDFF86C7926FB0733029EAA
:10139000DFF8347726FB0733009EDFF8787526FBED
:1013A0000733DFF80464059F20FB0633B84E21FBAA
:1013B00006334FF4803622FB0633DFF81C6CAD0A8F
:1013C00027FB06CC049FDFF8146C27FB06CC039F99
:1013D000DFF80C6C27FB06CC029FDFF8086C27FBBC
:1013E00006CC009FDFF8006C27FB06CCDFF8FC6B17
:1013F000DFF8B07320FB06CCDFF8F46B21FB06CCE2
:10140000DFF8F06B22FB06CE059E4FF0010C26FBA9
:101410000CFC049E26FB07CC039EDFF8F47426FB2D
:1014200007CC029EDFF8987626FB07CC009EDFF8FB
:10143000B47826FB07CCDFF8C07BDFF8C06B20FB5D
:1014400007C021FB0600DFF8B81B22FB010C019846
:10145000006AA3F5801340B19A44AAEB0B0A5AFB29
:1014600010FA4FEA4A0A9B465346019A0698089991
:10147000DB0153FB10F0138D20F38F0003FB08F307
:1014800021F8130008F101080198C18C8845FFF686
:101490005CAE0246C2F808C0C2F80CE0D561C2F8E2
:1014A00010A0C2F814B00798906109B00020BDE800
:1014B000F08F00002DE9F04F164683B08146346965
:1014C0007569B06902908846F169B368F068019067
:1014D000F08CD6F830C0D6F820E0012839DBDFF8F0
:1014E000247B00974A46DFF80078E14652F802CBA9
:1014F0009CFA9CFB07F1040C0BF0FF0A5CF82AA095
:10150000CBF3072B0AEB010C391DCCF3090A51F878
:101510002B1001EB9C21C1F3090C4CEA0A4CDFF8BB
:10152000E8AA2CFB0A3AAAF5006A5444009B641B03
:1015300054FB1EF42CFB03F364004FEA044C890AAD
:101540005CFB19FC2CF38F0C401E554628F802CB8F
:10155000CCD1B3600198F060F1613461756102989B
:10156000B06103B00020BDE8F08F00002DE9F44F1A
:1015700082B086468C46106951699469029B019439
:101580004FF0000B029EB6F82680029C029EDD6999
:101590009A68DB68246BD6F820A0B8F1000F64DDF0
:1015A0000BEBDB794FEA69099EF803609EF8007047
:1015B000BBEB49090AD13F029EF8019007EB0647B1
:1015C00007EB09060EF1020E08E000BF9EF802903C
:1015D000360206EB0946BE190EF1040EDFF8E4945C
:1015E00006F0FF0759F8277007EB95270097C7F318
:1015F0000909350ADFF8CC7405F0FF0657F82660B4
:10160000009F06EB9726C6F3090747EA0949DFF86A
:10161000B4742D0A57F82550DFF8EC7929FB073709
:1016200005EB9625194BA7F5D857C5F3090629FBF5
:101630000323381806EB4602401A03EB420350FB23
:101640001AF00122400029FB02F206EB46064FEA9F
:101650008039B21859FB14F90BF1010B29F38F09EA
:10166000C34539462CF8029B9ADB029CA260029A81
:10167000D360029BDD61029A106102984161029879
:1016800001998161002003B0BDE8F08F07000600DA
:10169000030006000C000A000A000C002DE9F44FBC
:1016A00083B084468946106951699469039B039D00
:1016B0000294039CDA69D4F80CE0EE8C9B68246BEE
:1016C0002D6A012E5CDB019400953446DFF83C89DD
:1016D000DFF814765CF8045B6DBA3E1D05F0FF0A76
:1016E0002D0A07F1040B56F82A6006EB922605F046
:1016F000FF025BF82220C6F3090A02EB9622C2F32E
:10170000090646EA0A462D0A07F1040A05F0FF0B0E
:101710002D0A5AF82BB00BEB922B3A1DCBF3090A8A
:1017200052F8252002EB9B22C2F3090545EA0A453F
:1017300026FB08EE4FF4803A25FB0AEADFF8D0E8F2
:10174000DFF8D0B826FB0E3325FB0B3E012326FB2A
:1017500003F3DFF8C46825FB0633AAF58046009D35
:101760003044401A50FB15F040003146019D4603BD
:1017700056FB15F525F38F05641E29F8025BA9D1E8
:10178000039CA360039BC3F80CE0039CE261039AF3
:10179000106103984161039802998161002004B0AF
:1017A000BDE8F08F060003000A000F0019001500C5
:1017B000150019002DE9F44F83B08446884610695E
:1017C00051699469039B039D0294039CDA69D4F8E0
:1017D0000CE0B5F826909B68246B2D6AB9F1010FD7
:1017E000C0F28480DFF80075019400950CF10404C8
:1017F000DCF80050266804F1020C74BA6DBA3E1D84
:1018000005F0FF0A2D0A56F82A6005F0FF0A06EBDC
:10181000922B3A1DCBF3090652F82A2002EB9B2AA1
:101820002A0ACAF3090545EA06453E1D02F0FF0BE8
:1018300056F82B60120A06EB9A2607F1040AC6F343
:10184000090B5AF8222002EB962ACAF3090646EA47
:101850000B463A1D04F0FF0B52F82B2007F1040B46
:10186000C4F3072402EB9A225BF82440DFF89CB70C
:10187000C2F3090A04EB9222C2F3090444EA0A44BF
:10188000DFF898A725FB0AEE26FB0BEE4FF4803A13
:1018900024FB0AEADFF888E725FB0E334FF01B1B19
:1018A00026FB0B33DFF87CE724FB0E3E012325FBF0
:1018B00003F3DFF8645726FB0533DFF86C6724FB7E
:1018C0000633AAF55845009C2844401A50FB14F0F2
:1018D00040002946019CC50255FB14F424F38F04F3
:1018E000B9F1010928F8024B7FF480AF039CA36093
:1018F000039BC3F80CE0039CE261039A1061039818
:101900004161039802998161002004B0BDE8F08F25
:101910000F000A0015001C002A00240030002E00D1
:101920002DE9F44F84B08E460446166957699169D3
:101930000498049B0291D0F80890C169D0F80C80FB
:10194000026BC08C1B6A0128C0F2A780039401922D
:101950000093DFF894C3039D08350395083DD5E94E
:10196000002354BA0CF104055ABA04F0FF0A240A01
:1019700004F0FF0B55F82A3059180CF10403C1F399
:10198000090A53F82B5005EB9125C5F30903240AE6
:1019900043EA0A430CF104010CF1040B04F0FF0AC2
:1019A000240A51F82A1001EB952A5BF8241001EB68
:1019B0009A21CAF30905C1F3090444EA05440CF16C
:1019C000040502F0FF0A120A55F82A5005EB91258A
:1019D00002F0FF015BF82110C5F3090A01EB952124
:1019E000C1F3090545EA0A45120A0CF1040A02F09E
:1019F000FF0B120A5AF82BB00BEB912B0CF10401E0
:101A0000CBF3090A51F8221001EB9B21C1F3090223
:101A100042EA0A42DFF814A6DFF800B623FB0A8880
:101A200024FB0B88DFF8E4A525FB0A884FF4803BF4
:101A300022FB0B8ADFF8F885DFF8F8B523FB08985E
:101A4000DFF8EC9522FB198824FB0B8825FB1B880B
:101A50004FF0010B23FB0BF3DFF8BC9524FB09339C
:101A6000DFF8C445DFF8D09525FB043322FB0939A4
:101A7000AAF50033009A1E44F61B56FB12F67600B8
:101A80001F46019AB302890A53FB12F222F38F0216
:101A9000401E2EF8022B7FF45EAF0498C0F8089029
:101AA000049AC2F80C800498C16104990E610498EC
:101AB0004761049802998161002005B0BDE8F08F6C
:101AC0001C0015000400002024002D002DE9F44F17
:101AD0008346104685B00269436984690598059F6D
:101AE0000494C5698468D0F80CA0FE8C006B3F6A32
:101AF000012EC0F2DD8003908C467B490297CDF821
:101B000004C0304601F1040CDBF80070DBF804601F
:101B1000DBF8088097FA97FE98FA98F796FA96F904
:101B20000EF0FF084FEA1E2E5CF828600EF0FF084A
:101B300075190E1DC5F3090C56F8288008EB952879
:101B4000C8F309054FEA1E2E45EA0C4C0EF0FF05BE
:101B500056F825604FEA1E2E06EB982601F1040880
:101B6000C6F3090558F82E8008EB9628C8F3090635
:101B700046EA054E0E1D09F0FF0556F8255005EB07
:101B8000982500954FEA1929C5F3090809F0FF05C2
:101B900056F82550009E05EB9625C5F3090646EA42
:101BA000084800954FEA19290E1D09F0FF0556F85F
:101BB0002560009D06EB95260096C6F309050E1DCF
:101BC0004FEA192956F82960DDF8009006EB9926AE
:101BD0000096C6F3090949EA05490E1D07F0FF05FD
:101BE00056F82560009D06EB95260096C6F309057C
:101BF0000E1DC7F3072756F82760009F06EB9726B0
:101C0000C6F3090747EA0547B50ADFF830642CFB3D
:101C100006AADFF818642EFB06AADFF8006428FB8A
:101C200006AADFF8E86329FB06AA4FF4803627FBF3
:101C300006A6DFF8A0A02CFB0A44DFF89CA02EFB30
:101C40000A444FF04B1A28FB0A44DFF890A029FB06
:101C50000A44DFF88CA027FB0A4A01242CFB04FC71
:101C6000ED4C2EFB04C4DFF8C0C3DFF88CE028FB8A
:101C70000C4429FB0E44DFF8C8C327FB0C44A6F52F
:101C80007A36029FB218D21A52FB17F2520033462C
:101C9000039F560256FB17F7019EB61C019627F3C9
:101CA0008F07401E0BF10A0B26F8027D7FF42AAF46
:101CB000059884600599C1F80CA00598C56105993F
:101CC0000A6105984361059804998161002006B076
:101CD000BDE8F08F3F00370049004500450049004E
:101CE00037003F002D00240000000020690078002C
:101CF0004E005B00370042001C0015002DE9F44F38
:101D0000054688B00898D2F810A0D2F814C092699D
:101D1000089B07920C46D0F808E0D0F80C80026BC4
:101D20000899C08CC9691B6A0128C0F23F810395DC
:101D3000069205930494C34E039C08340394083C14
:101D4000039DD4E9002308350395083DD5E90047F4
:101D500055BA5ABA63BA7CBA371D05F0FF0B57F86B
:101D60002B902D0A05F0FF0B494457F82B70C1F357
:101D7000090907EB9121C1F309072D0A47EA09492F
:101D800006F1040B05F0FF075BF827702D0A5BF8DE
:101D9000255007EB9127C7F3090105EB9725C5F3FC
:101DA000090747EA0147029702F0FF0B371D120AA5
:101DB00057F82B1006F1040B02F0FF075BF82770B1
:101DC00001EB9521C1F3090507EB9127C7F3090141
:101DD00041EA0541120A0191351D02F0FF0B120A7A
:101DE00055F82B1001EB9721371DC1F3090557F862
:101DF000222002EB9122C2F3090747EA0547009728
:101E0000351D03F0FF071B0A03F0FF0B55F8277081
:101E100007EB9227321DC7F3090552F82B1001EB8F
:101E20009721C1F3090242EA05421B0A351D06F15A
:101E3000040B03F0FF071B0A55F8277007EB9127E7
:101E40005BF8231001EB9721C7F30905C1F30903E0
:101E500043EA0543351D04F0FF07240A55F82750CF
:101E600005EB912504F0FF015BF82110C5F309078C
:101E700001EB9521C1F3090545EA0745240A371D01
:101E800004F0FF0B240A57F82B7007EB912B311D40
:101E9000CBF3090751F8241001EB9B21C1F309048E
:101EA00044EA0744684FDFF8A4B129FB0788029F82
:101EB00027FB0B88019FDFF898B127FB0B88009F59
:101EC000DFF878B127FB0B88584F22FB0788534F68
:101ED00023FB07884D4F890A25FB07884FF480377D
:101EE00024FB0787DFF8F080DFF8F0B029FB08EE6D
:101EF000DDF8088028FB0BEEDDF80480DFF8E0B0A9
:101F000028FB0BEEDDF80080DFF8D8B028FB0BEEE5
:101F1000DFF8D4B0DFF8D48022FB0BEE23FB08EE11
:101F2000DFF8CCB0DFF8CC8025FB0BEE24FB08E813
:101F30004FF0010E29FB0EF9DDF808E0DFF8D8B00C
:101F40002EFB0B99DDF804E0DFF8DCB02EFB0B99DB
:101F5000DDF800E0DFF8E0B02EFB0B99DFF8E0B031
:101F600022FB0B92DFF8909023FB0922234B25FBE9
:101F70000322234B24FB032EA7F58017059ABA44AE
:101F8000AAEB0C0A5AFB12FA4FEA4A0A069A4FEADF
:101F9000CA1353FB12F2049B9B1C049322F38F027F
:101FA000401EBC4623F8022D7FF4C6AE0898C0F848
:101FB00008E0089AC2F80C800898C1610899C1F835
:101FC00010A00898C0F814C00898079981610020F3
:101FD00009B0BDE8F08F000096008800AC00A200B8
:101FE000BA00B400C000BE00BE00C000B400BA0019
:101FF000A200AC0088009600420037005B004E0053
:1020000078006900030001000100030003000600DE
:102010000C000A000A000C00060003000A000F0072
:1020200019001500150019000F000A0015001C000A
:102030002A00240030002E001C00150024002D0072
:102040002D00240000000020690078004E005B0095
:102050003700420053EA020C00F069802DE9F04B92
:102060004FF00006002B1FBFB3FA83F503FA05F407
:1020700024FA05F65E4012BF1643B2FA82F502FA60
:1020800005F4C5F120051EBF22FA05FC44EA0C0444
:10209000203556EA044C4FEA144418BF641C4FF034
:1020A00000084FF00009904271EB030C39D300296E
:1020B00019BFB1FA81F701FA07F6B0FA80F700FA12
:1020C00007F6C7F120071EBF20FA07FC46EA0C06F8
:1020D0002037B6FBF4FCA7EB0507103F07F01F0BFA
:1020E000CBF120062CFA06F60CFA0BFB44BFB346E4
:1020F0000026202FA4BF5E464FF0000B5BEA060CC3
:1021000008BF4FF0010B19EB0B0948EB0608ABFBBE
:10211000027C06FB02CC0BFB03CCC01B71EB0C0159
:10212000C1E70B46024641464846BDE8F08B13B571
:10213000084318BF4FF0FF300146AFF30080BDE801
:102140001C40704710B5203AC0F00B80B1E8185021
:10215000A0E81850B1E81850A0E81850203ABFF491
:10216000F5AF5FEA027C24BFB1E81850A0E8185030
:1021700044BF18C918C0BDE810405FEA827C24BF84
:1021800051F8043B40F8043B08BF7047D20728BF12
:1021900031F8023B48BF11F8012B28BF20F8023B61
:1021A00048BF00F8012B70474FF000020429C0F02F
:1021B000128010F0030C00F01B80CCF1040CBCF179
:1021C000020F18BF00F8012BA8BF20F8022BA1EBCB
:1021D0000C0100F00DB85FEAC17C24BF00F8012BB0
:1021E00000F8012B48BF00F8012B70474FF00002A8
:1021F00000B5134694469646203922BFA0E80C50FD
:10220000A0E80C50B1F12001BFF4F7AF090728BFD7
:10221000A0E80C5048BF0CC05DF804EB890028BF53
:1022200040F8042B08BF704748BF20F8022B11F07C
:10223000804F18BF00F8012B7047704770477047F8
:1022400010B500F009F8006810BD10B5044600F0A4
:1022500003F8046010BD000000487047100400201F
:1022600000487047100400207546FFF7F9FFAE469E
:1022700005006946534620F00700854618B020B592
:10228000FDF7F6FFBDE820404FF000064FF00007D5
:102290004FF000084FF0000BAC46ACE8C009ACE8CA
:1022A000C009ACE8C009ACE8C00921F007018D46BF
:1022B000704710B50446AFF300802046BDE81040DB
:1022C000FDF7C1BF01491820ABBEFEE726000200A2
:1022D00070470000FEE7000040F2C8420428C2F246
:1022E000000209D2C0004BF6FF71C0B2CAF6EF710E
:1022F00021FA00F003E000BF507840F00F0080B5F5
:1023000082B00421117050704FF0640C101D9421A4
:102310000223CDF800C000F0E7FE02B080BD00004F
:1023200084B02DE9F04782B00DF1280C8CE80F0045
:1023300040F22070C2F20000002101640068DDF864
:102340008480C169012241F48061C16140F600408E
:10235000C4F20200102100F08DFC40F2C844C2F229
:102360000004251D0AA928465C22FFF7EBFE40F277
:1023700002202080642728469421224602230097C9
:102380004FF0020900F0B0FE4AF6047020802846A3
:10239000942122460223009700F0A6FE48F2050091
:1023A00020802846942122460223009700F09CFEBC
:1023B0004FF0060A284694212246012384F800A003
:1023C000009700F091FE28469421224601230097B1
:1023D00000F00AFD264616F8010F942100F02000B7
:1023E0000730307028462246022384F800A0009768
:1023F00000F07AFE4FF0080A284694212246012375
:1024000084F800A0009700F06FFE28469421324621
:102410000123009700F0E8FC3078942100F0F000F0
:102420000130307028462246022384F800A000972D
:1024300000F05AFE4FF0090A284694212246012353
:1024400084F800A0009700F04FFE28469421324601
:102450000123009700F0C8FC3078942100F0F000D0
:102460000130307028462246022384F800A00097ED
:1024700000F03AFE0E2020702846942122460123C7
:10248000009700F031FE2846942132460123009740
:1024900000F0AAFCB8F1000F0AD0B8F1030F09D17F
:1024A00094F801904FF6F870C1F6FF7060F3DF0901
:1024B00084F801900E20207064262846942122463C
:1024C0000223009600F010FE0F2728469421224692
:1024D00001232770009600F007FE621C2846942115
:1024E0000123009600F080FC284694212246022316
:1024F0002780009600F0F8FD1420208028469421C3
:1025000022460223009600F0EFFD15202070284699
:10251000942122460223009600F0E6FD1A20207046
:102520002846942122460223009600F0DDFD1B2060
:1025300020702846942122460223009600F0D4FD04
:1025400002B0BDE8F04704B070470000F0B581B0BC
:1025500040F2C84406466FF06300C2F2000400EB8C
:1025600046001421251D217060706427284694219F
:1025700022460223009700F0B7FD15202070284660
:10258000942122460223009700F0AEFD44F2B07180
:1025900006EB4600C0F2010148436FF0170101EB62
:1025A000D040642E88BF18202021217060702846FA
:1025B000942122460223009700F096FD21202070EE
:1025C0002846942122460223009700F08DFD01B099
:1025D000F0BD00002DE9F04182B040F2C844C2F2E3
:1025E00000044FF41940251D2080642728469421BB
:1025F0002246022304F10108009700F075FD48F21D
:10260000470020802846942122460223009700F0AC
:102610006BFD32262846942122460123267000971E
:1026200000F062FD2846942142460123009700F005
:10263000DBFB6078942140F08000607028462246E1
:1026400002232670009700F04FFD28469421224671
:1026500001232670009700F047FD2846942142464A
:102660000123009700F0C0FB6078942100F07F0008
:1026700060702846224602232670009700F034FD41
:10268000002020802846942122460223009700F053
:102690002BFD49F602602080284694212246022321
:1026A000009700F021FD02B0BDE8F08140F2FC503F
:1026B000C2F2000000F03CB840F26060C2F20000DC
:1026C00000F036B87047000072B600BFFEE70000A9
:1026D000002804BF01207047816819B10121816081
:1026E0000020704710B500214160044600F008F852
:1026F0002046BDE8104001218160002070470000A5
:1027000043F63001C4F202010068A1F50362904271
:1027100018BF704781B000200090086840F48050D6
:102720000860086800F480500090009801B070477D
:10273000F0B581B00021009140F20C41C2F20001DD
:102740000B68D0E9176148F2B51537680822C1F661
:102750004E358A403A42A3FB05350CD003681C680D
:10276000640708D51C6824F004041C60B260826D04
:1027700042F00102826501228A403A4208D0036891
:102780005B691B0604D5B260826D42F0020282656D
:1027900004228A403A4208D003681B689B0704D58C
:1027A000B260826D42F00402826510228A403A4291
:1027B00019D001680B681B0715D5B2600B680A6851
:1027C0005B0309D4D20509D40A6822F008020A6022
:1027D000416C29B907E000BF11033BD4416C11B132
:1027E000044688472046026E202101FA02F33B424C
:1027F0003DD001680F68FF0639D5B360876B0B6861
:10280000052F19D123F016030B604B6923F08003C9
:102810004B61436C0BB9C36C1BB10B6823F008030D
:102820000B603F219140B16001218163416D002225
:10283000002942634ED151E00A685B030ED4D205F1
:1028400010D40A6822F010020A600121816300217D
:10285000416307E0C16C0029C2D1C4E7110301D470
:10286000816C00E0016C11B1044688472046816DFF
:10287000A1B3816DC9072BD0052181630168AA0A24
:102880000B6823F001030B60009B0133934200931C
:102890001AD80B68DB0717D0009B013393420093D3
:1028A00012D80B68DB070FD0009B013393420093D3
:1028B0000AD80B68DB0707D0009B013393420093D3
:1028C00002D80B68DB07DFD101218163002141635E
:1028D000016D19B101B0BDE8F040084701B0F0BD8D
:1028E0002DE9F041044600F0CBF9CCB105460220B9
:1028F000A063002021686063086820F00100086080
:1029000021680868C0070FD000F0BAF9401B0528FD
:10291000F6D9032520230320A365A563BDE8F08134
:102920000120BDE8F08100BF086848F23F02CFF205
:102930001002D4E9013500EA020C04F10C0898E811
:10294000C10143EA0C032B431843D4E9072E30435B
:1029500038431043626A40EA0E00042A40EA080342
:102960001CD1206BD4E90A2E40EA0E0018430860FF
:102970004869BEF1000F20F0030040EA020040F079
:10298000040C11D0B8F5005F34D0B8F1000F43D17A
:10299000022A44D0012A39D032B940E00B6048699C
:1029A00020F0070040EA020C01F0F8004AF6AB22E2
:1029B0001038CAF6AA22A0FB02231A0945F2747342
:1029C000C1F814C0C0F600039A5C40F2FF335F28E0
:1029D0004FF03F0021EA030100FA02F088BF043102
:1029E000C4E917128860012500230020A365A563B0
:1029F000BDE8F081032AD7D8012540230120DFE874
:102A000002F0030E030500BF86E700BFAEF1C07001
:102A1000B0FA80F0400904E0032A04D3C4D1CEF315
:102A200000600028C0D0012540230120A365A563D4
:102A3000BDE8F081D0F834C0BCF1010F04BF022022
:102A4000704770B54FF0010CC0F834C0D0F85CE0AE
:102A5000D0F838C0BCF1010F38D14FF0020CC0F8EB
:102A600038C04FF0000CC0F858C0D0F800C08468DF
:102A7000456C006EDCF80060402C26F48026CCF813
:102A80000060CCF804300B4604BF13460A463F21D1
:102A900001FA00F0CCF80830CCF80C20CEF8080091
:102AA000DCF8000040F01600CCF800002DB1DCF896
:102AB000000040F00800CCF80000DCF8000040F016
:102AC0000100CCF80000002070BD00BF0021416370
:102AD000022070BD2DE9F04F83B000F1200200F11B
:102AE0003E4741F60045009207F1FF77C4F2020528
:102AF00008224FEAB726A84208BF072200254FF058
:102B000000084FF00009072E38BF4FEAB7220192A4
:102B10000AE000BF09F1010908F10208B9F1100F3C
:102B200005F1040500F0A2800F68012202FA09FEF7
:102B300017EA0E0AEED0D1F804C003220CF0030706
:102B40007E1E02FA08F4012E6FEA040B12D8846884
:102B5000CE6804EA0B0406FA08F63443846044683D
:102B600024EA0E06CCF3001404FA09F42643466066
:102B700004E000BF032F01D103271EE0C6688C6864
:102B800006EA0B0604FA08F42643022FC66014D1A5
:102B90006FF00302009E02EA590756F807C005F0DD
:102BA0001C040F220B69A2402CEA0202A3401A4324
:102BB000F251D1F804C00CF00307026807FA08F3D9
:102BC00002EA0B021A431CF4403F0260A2D000222A
:102BD00043F644030292C4F202031A6843F6004427
:102BE00042F480421A601A68C4F2010402F480427E
:102BF0000292029A29F003024FF6084C2244CFF6C3
:102C0000FF7C52F80C3005F00C070F26BE40B34392
:102C1000019E06FA07F73B4342F80C30A2684B6866
:102C200042EA0A0743F60C4CDE0258BF22EA0A07C2
:102C3000A760C4F2010CDCF800209E0242EA0A07F9
:102C400058BF22EA0A07CCF8007062689E0342EA85
:102C50000A0758BF22EA0A0767602268DB0342EAD4
:102C60000A0758BF22EA0A07276053E703B0BDE806
:102C7000F08F0000002A08BF09048161704700003E
:102C800040F6EC00C2F2000000687047002804BF64
:102C900001207047F0B581B00446006C20B90020D7
:102CA000E063204600F004FB2420206420680168D3
:102CB00021F001010160016841F4004101600168F7
:102CC00021F40041016001F0ABF9636848F2A16CA6
:102CD000C0F2010C40F60011C0F23D0163453CBF5B
:102CE00048F28041C0F21E01884203D2012001B0A7
:102CF000F0BD00BF4DF68361C4F21B31A0FB011291
:102D00002168970CD1F804E04FF496762EF03F0539
:102D100045EA92454D60774348F638160D6AC0F291
:102D20004106A7FB067625F03F07634538BF960CA2
:102D3000721C3A430A62CA6948F2A0664CF6FF77F1
:102D4000C0F20106B34222EA07020BD801385B0049
:102D5000B0FBF3F001306FF31F30042898BF04205C
:102D60001BE000BFA768013857B119277B43B0FBB0
:102D7000F3F001306FF31F3070B100F5804007E0D1
:102D800003EB4303B0FBF3F001306FF31F3018B1D6
:102D900000F5004001E000BF01201043C861086851
:102DA000D4E9072320F0C000104318430860886866
:102DB00048F2FF3204F10C0790438CCF18431043C4
:102DC000A6698860C86820F0FF0038433043C860B7
:102DD000086840F00100086000202021A064216400
:102DE0002063606401B0F0BD2DE9F04383B01F465D
:102DF000164689460446FFF743FF216C20291ED161
:102E0000054620688169890716D5FFF739FF411B00
:102E100020681A29F6D381698907F3D5002020217B
:102E2000206321646064A16C41F02001A164E0632F
:102E3000022003B0BDE8F083E16B012904D1022038
:102E400003B0BDE8F08300BF0121E1630168C90759
:102E500003D1016841F001010160016840F20408FA
:102E600021F40061016022212164102161640021AC
:102E7000A16466626785618DC0F201082185A8F5AD
:102E800000310439E162E16A02680A9F42F480621B
:102E900011F5803F026018BF012941D1016841F45A
:102EA0008071016020464FF0011100223B460095E1
:102EB00001F048FB50B120680068C00544BF4FF4E2
:102EC0000070A064012003B0BDE8F0832069B0F574
:102ED000804F2BD149F00100C0B221683A46086109
:102EE000A8F1020120462B4601F00CFC0028E9D194
:102EF000208D00285AD002284ED001286AD121689E
:102F00000A6822F480620A60002202924A690292F0
:102F10008A690292029A0A6842F400720A6074E0B6
:102F20000829BBD0216B1129B8D0BBE7062000EAE5
:102F3000D916206806F1F001016108F1040120466C
:102F40003A462B4601F0DEFB0028BBD120685FFA31
:102F500089F10161A8F1020120463A462B4601F0B1
:102F6000D1FB0028AED100200290206800224169E8
:102F70003B460291816902910299016841F4807196
:102F8000016020464FF00111009501F0DBFA0028A6
:102F900091D146F0F100A0E721680A6822F480622E
:102FA0000A600A6842F4006218E000BF0020029044
:102FB000206841690291816902910299016841F496
:102FC000007101602020206400206064E06303B091
:102FD000BDE8F08321680A6842F480620A6000223A
:102FE00002924A6902928969029102990DE000BF3A
:102FF00010690870606A218D01306062481E20856A
:10300000618D013961850104DCD080B203280FD8BD
:1030100002284AD001282DD1204639462A4601F0FF
:10302000DBFB00287FF44EAF2068616A0069E0E7AF
:10303000204639462A4601F0CFFB00287FF442AFF4
:103040002068616A00690870606A2268411C208DEE
:10305000616201382085638D013B638553695B079D
:10306000D1D580B20328C3D1106820F480601060ED
:10307000BEE700BF2046414600223B46009501F0D6
:1030800061FA00287FF41EAF2068616A026822F4AA
:103090008062026000690870606A218D01306062A0
:1030A000481E2085608D01386085204641460022FB
:1030B0003B46009501F046FA00287FF403AF2068F4
:1030C000616A026842F40072026000690870606A16
:1030D0002268411C6162218D01392185618D013990
:1030E00061851169417085E72DE9F04383B01E4683
:1030F000174689460446FFF7C3FD216C20291ED1DF
:10310000054620688169890716D5FFF7B9FD411B7F
:1031100020681A29F6D381698907F3D50020202178
:10312000206321646064A16C41F02001A164E0632C
:10313000022003B0BDE8F083E16B012904D1022035
:1031400003B0BDE8F08300BF0121E1630168C90756
:1031500003D1016841F001010160016840F20208F9
:1031600021F40061016021212164102161640021AA
:10317000A16467626685618DC0F201082185A8F1AE
:103180000211E162E16A0A9E11F5803F18BF012930
:103190001ED1016841F48071016020464FF0011199
:1031A00000223346009501F0CDF958B1206800683F
:1031B000C00544BF4FF40070A064012003B0BDE817
:1031C000F08300BF2069B0F5804F07D1FE2015E0E5
:1031D0000829DED0216B1229DBD0DEE7062000EAC9
:1031E000D9102168F030086108F106012046324606
:1031F0002B4601F087FA0028DFD1FF20216800EA82
:10320000090008612046414632462B4601F07AFA11
:103210000028D2D100200290206841690291806983
:103220000290029806E000BF204631462A4601F08F
:103230002FF918BB208D68B3204631462A4601F08D
:103240000FFBD8B9606A2168024612F8013B0B6196
:103250006262628D013A6285228D531E23854F6919
:103260007F07E1D51B04DFD0437802300B61606239
:10327000608D01386085901E2085D5E7A06C0428FC
:103280009BD12068016841F400710160012003B006
:10329000BDE8F0832068016841F4007101602020DE
:1032A000206400206064E06303B0BDE8F0830000A8
:1032B000B0B586B045F200410068C4F200010024B8
:1032C00088420594CDE903440294019402D006B0EB
:1032D000B0BD00BF43F630050094C4F20205286873
:1032E00040F002002860286800F00200009000987A
:1032F0004FF4107001901220CDE9020403200490D5
:103300000420059001F5D83001A9FFF7E3FB0094F4
:10331000286940F400102861286900F4001000902A
:10332000009806B0B0BD00002DE9F04186B004461B
:10333000006844F20C05816843F20448C4F20005B9
:10334000C4F20008059108F57F77291FB84208BF2D
:1033500008F10401096808F5406604914168B84223
:103360000391314604BF43F20441C4F200010A68EC
:103370000292626842F40072B2F5007F4AD1059968
:10338000890744BF03995FEA016177D40498C007B5
:1033900020D0029840061DD52068E16AB84208BFD7
:1033A00008F108052A6821F8022BE162618E0139D3
:1033B0006186618E71B9B842304608BF40460168E7
:1033C00021F060010160608D20B901206064204619
:1033D00000F0DAF80498400644BF02985FEA806083
:1033E00066D40598000744BF03985FEA806042D521
:1033F00020684168B84221F0A001416008BF4646FC
:10340000316821F0600131600021019180680190F4
:103410000198ADE0049A920744BF029A5FEA026203
:1034200064D40598C00718D00398400615D52068C5
:10343000E16AC26821F8022BE162618E013961867E
:10344000618E51B9416821F060014160608D20B901
:1034500001206064204600F097F80598400644BFBC
:1034600003985FEA80605FD40498000744BF029825
:103470005FEA806070D406B0BDE8F081616A31F81F
:10348000022B6162C260618D01396185618D002905
:103490007FF47CAF416821F0A0014160608E00287C
:1034A0007FF474AF01206064204600F06DF86DE792
:1034B00020683146B84208BF41460A6822F06002DF
:1034C0000A60416821F0A001416000210191C168BA
:1034D000019180680190019801206064A06C40F027
:1034E0000200A064204600F051F87AE7626AB84210
:1034F00032F8023B626208BF08F108052B60608D5C
:1035000001386085608D00287FF48BAF086820F05B
:10351000A0000860608E00287FF483AF0120606403
:10352000204600F031F87CE720684168B84221F07D
:1035300060014160304608BF4046016821F0A001AB
:10354000016001206064A06C40F00200A06420468D
:1035500000F01CF888E700BF2068B84208BF464664
:10356000316821F0A0013160416821F060014160C3
:1035700001206064A06C40F004012046A16406B004
:10358000BDE8F04100F002B870470000704700004D
:10359000002804BF012070472DE9F0410446406C2B
:1035A00048B90020206444F69110C0F60000606322
:1035B000204600F0A1F80221616420686269C369B5
:1035C00040F6BF76B343022AC361016202D121698A
:1035D000022243E0D4E90206002521284FF0010031
:1035E00038BF012500F098FB2169B1F5007F07D1B4
:1035F000E368626963B10723002E08BF06230BE06E
:103600000522002E08BF04222A44D040626905E04A
:103610000823002E08BF07232B44D84000EB80006E
:103620004000B0FBF2F04CF6CD420530CCF6CC4277
:10363000A0FB02206FF0FF0202EB101212F1FE0F4E
:1036400006D2A06C40F01000A0640120BDE8F0811B
:10365000020900F00803206842EA431211430162A4
:10366000C16940F6BF7CD4E9015821EA0C06E26842
:1036700046EA0806A36916432E431E4346F4006635
:10368000C661266A012E31D143F2293643F21C4E1F
:10369000C0F60006C4F2000E66630EF579760EF5EC
:1036A0004067B04204BF43F21C47C4F200073968C8
:1036B000B04221EA0C01396044F22001C4F2000159
:1036C0004FF0020008BF0EF10401086038686FF483
:1036D00000714FF400660D4208BF4FF4106630438E
:1036E00040EA08001043184380B2386000200121EE
:1036F000A0646164BDE8F0812DE9F04387B0044621
:10370000006843F60041C4F2000100278842CDE979
:103710000577CDE90377029772D043F60001C4F232
:103720000001884240F0DA8043F630000197C4F28D
:103730000200016940F6000541F480410161016920
:10374000C4F2020501F480410191019901970168D9
:1037500002AE41F00401016001684FF0020801F07F
:10376000040101910199019701684FF0050941F0A9
:10377000020101600068314600F0020001900198EA
:10378000082002902846CDE903870597CDF81890C8
:10379000FFF7A0F94FF4A050CDE90208A5F580602D
:1037A0003146CDE90477CDF81890FFF793F940F250
:1037B000FC5546F25800C2F20005C4F202004FF474
:1037C0008061C5E9000705F110004FF400624FF475
:1037D00000534FF480764EC004200321C5E90870E1
:1037E0002846C5E90277C5E90A172F63FFF778F87D
:1037F00000284FF03C0618BFFEF766FF6CE000BFE4
:1038000043F630000197C4F20200016940F600055A
:1038100041F4004101610169C4F2020501F4004173
:10382000019101990197016802AE41F00101016027
:1038300001684FF0020801F001010191019901971F
:1038400001684FF0060941F004010160006831464B
:1038500000F004000190019810200290A5F500608E
:10386000CDE903870597CDF81890FFF733F94FF4AA
:10387000A450CDE9020828463146CDE90477CDF8B9
:103880001890FFF727F946F25800C4F2020040F200
:1038900060653030C2F200054FF48062C5E9000770
:1038A00005F1100040214FF400634FF400564FF42F
:1038B000807C80E84C100420C5E902170321C5E98B
:1038C00008702846C5E90A172F63FFF709F84FF07B
:1038D000380608B1FEF7F8FEA551EC6307B0BDE865
:1038E000F083000000294FF0010318BF002A01D126
:1038F00018467047436C012B02D1036C012B03D196
:1039000002231846704700BF10B582B0012303643C
:103910000423436400238364D0F800E0C162DEF82E
:103920001C3003F00703052B04D0032B08BF520003
:1039300001E000BF5200028642868C46C26B44F60C
:103940005D1144F63913C0F60001C0F60003C2E968
:10395000103144F61511C0F600011165DEF81C1097
:1039600001F44071B1F5407F08D100210191DEF8EA
:103970000C100191DEF8081001910199038E0446A4
:103980000EF10C0110466246FFF754F860B1A06CCE
:10399000012340F00800A06400206364206402B0AA
:1039A000BDE8104018467047002020642068416838
:1039B000C90703D1416841F001014160C16949056E
:1039C00003D4C16941F48061C161002302B0BDE844
:1039D0001040184670470000006843F60001C4F22A
:1039E0000001884218BF704710B540F2EC7040F2F9
:1039F0006C74C2F20000C2F2000440F23052803017
:103A000004F14001C2F20002FCF73DFED4E91012BD
:103A100040F27C50C2F200000160A16C4260E26C96
:103A20008160216DC260626D0161A16D4261E26DD4
:103A30008161216EC261626E0162A16E4262E26EBC
:103A40008162216FC262626FC0E90C12D4E91E125A
:103A5000C0E90E1210BD0000006843F60001C4F278
:103A60000001884218BF704710B540F26C7440F2F4
:103A7000EC70C2F2000440F23052C2F20000C2F216
:103A800000022146FCF7FFFDD4E9001240F27C5011
:103A9000C2F200000160A1684260E26881602169B1
:103AA000C26062690161A1694261E2698161216A62
:103AB000C261626A0162A16A4262E26A8162216B4A
:103AC000C262626BC0E90C12D4E90E12C0E90E1298
:103AD00010BD000000294FF0010318BF002A01D1DA
:103AE00018467047436C012B02D1036C012B03D1A4
:103AF00002231846704700BF10B501230364032357
:103B0000436400238364D0F800E04162DEF81C3097
:103B100003F00703052B03D0032B08BF520000E07E
:103B2000520002854285D0F838C044F6891244F626
:103B30006513C0F60002C0F60003CCE9103244F66B
:103B40001512C0F60002CCF85020038D04460EF189
:103B50000C026046FEF76EFF60B1A06C012340F0DE
:103B60000800A064002063642064BDE8104018468B
:103B7000704700BF0020206420684168890703D493
:103B8000416841F002014160C169490503D4C1693E
:103B900041F48061C1610023BDE8104018467047C0
:103BA000704700007047000040F2044040F6EC010E
:103BB000C2F20000C2F2000140680A6810440860C6
:103BC0007047000080B543F60040C4F2020001686F
:103BD00041F400710160016841F480610160016895
:103BE00041F480710160032000F086F8002000F0AD
:103BF00005F800F027F8002080BD000070B540F205
:103C00000446C2F2000640F20C417268C2F20001A2
:103C10004FF47A730968B3FBF2F20446B1FBF2F198
:103C2000084600F01DFC0F2C4FF0010508D838B9EC
:103C30004FF0FF3021460022002500F031F83460BB
:103C4000284670BD82B0002043F640010190C4F2C6
:103C500002014A6842F480424A604A6802F48042A3
:103C60000192019A0090086840F08050086008684E
:103C700000F0805000900098072002B000F03CB89F
:103C8000002848BF704700F01F01012202FA01F12D
:103C90004EF200124009CEF2000242F820107047A6
:103CA00010B54EF60C5CCEF2000CDCF80030C3F31D
:103CB000022E8EF00704042C28BF0424BEF1030357
:103CC0004FF0FF3E0EFA04F438BF0023A1439940A1
:103CD0000EFA03F39A43114300F00F0200F1604320
:103CE0000901043A03F564436244002848BF02F125
:103CF0000C03197010BD00004EF60C51CEF20001FD
:103D00000A684FF6FF031A4060F30A2242F080600F
:103D100040F0FD700860704701281CBF002070470C
:103D200043F60400C4F202004168090242BF48F2AF
:103D30000000C0F2BB00704701680268490241F20E
:103D40000021C0F27A0102F03F025CBF42F2004162
:103D5000C0F2F401D0F88030B1FBF2F1D0F880006D
:103D6000C3F388125143C0F30270B1FBF0F0704707
:103D7000F0B581B00446006810F0050F2DD068271B
:103D8000C4F2472743F670060020C4F202063860EA
:103D9000FEF776FF054600BF56F8700C000105D50A
:103DA000FEF76EFF401B0228F6D93FE0D4E901017F
:103DB000090741EA8010706101203860FEF760FF5A
:103DC000054600BF56F8700C000105D4FEF758FFF9
:103DD000401B0228F6D929E0206880074FF0000038
:103DE00058D543F67006C4F20206009056F8300C1F
:103DF00047F2000740F0805046F8300C56F8300C7F
:103E0000C4F2000700F0805000900098386840F439
:103E100080703860FEF734FF054600BF3868C00583
:103E200008D4FEF72DFF401B0228F7D9032001B06C
:103E3000F0BD00BF306810F4407013D0E16801F4A9
:103E4000407188420ED0306840F64061C4F247218C
:103E5000012220F440700A6000220A60306030685D
:103E6000C00719D1E06856F8681C4FF6FF4300F40C
:103E7000407221F4F811C0F6FF730340B2F5407FA1
:103E800008BF194346F8681C31686FF31F300843B8
:103E90003060002001B0F0BDFEF7F2FE054641F2B1
:103EA000883700BF30688007DCD4FEF7E9FE401B8E
:103EB000B8424FF00300F5D9ECE70000002804BF3A
:103EC000012070472DE9F04143F60808C4F20208CA
:103ED0000446D8F8F8030D4600F00700884207D2E0
:103EE00088F8F853D8F8F80300F00700A84277D113
:103EF0002068810717D5410705D5D8F8001041F48F
:103F0000E051C8F80010010705D5D8F8001041F4B9
:103F10006041C8F80010D8F80010A26821F0F00144
:103F20001143C8F80010C00740D1D8F8F80300F0DA
:103F30000700A84207D988F8F853D8F8F80300F02A
:103F40000700A8424CD12068410707D5D8F80010D7
:103F5000E26821F4E0511143C8F80010000708D5C9
:103F6000D8F80000216920F4604040EAC100C8F898
:103F7000000000F069F8D8F8001045F25C72C1F357
:103F80000311C0F60002515C40F20C4220FA01F12C
:103F900040F20440C2F200000068C2F20002116068
:103FA000FFF72CFE0020BDE8F08100BF6068811E95
:103FB000022907D258F8081C89015CBF0120BDE81E
:103FC000F08111E0012807D158F8081C89035CBF73
:103FD0000120BDE8F08107E058F8081C890703D4E8
:103FE0000120BDE8F08100BFD8F8001021F00301E6
:103FF0000843C8F80000FEF743FE064641F2883742
:10400000D8F80000616800F00C00B0EB810F8CD094
:10401000FEF736FE801BB842F2D90320BDE8F081DE
:1040200040F20C4043F60801C2F20000C4F2020163
:104030000068096845F26C72C1F38221C0F6000283
:10404000515CC8407047000010B543F60404C4F248
:104050000204606800F00C0142F200400829C0F23E
:10406000F40007D0042918BF10BD41F20020C0F2AF
:104070007A0010BD216801F03F02216823684902DF
:10408000C3F3881106D4A1FB00010023FDF7E2FF72
:1040900007E000BF41F20020C0F27A004843B0FBC5
:1040A000F2F021680222C1F3014102EB4101B0FBB1
:1040B000F1F010BD002804BF012070472DE9F04148
:1040C00082B00446007843F60006C007C4F2020638
:1040D0000CD0B06800F00C00042840F081803068FB
:1040E000800303D56068002800F06881207880078D
:1040F0001BD5B06810F00C0F09D0B06800F00C00B0
:10410000082840F087807068400200F183803068A2
:10411000800703D5E068012840F0508130682169AC
:1041200020F0F80040EAC10030602078000713D486
:10413000207840072AD4A569002D00F03A81B068A4
:1041400000F00C00082840F0A580012D40F00E8101
:10415000012002B0BDE8F0816069002800F0828093
:104160000020C4F247200121C0F8801EFEF788FD20
:10417000054600BF706F8007DAD4FEF781FD401B53
:104180000228F7D9032002B0BDE8F081306C5FEA65
:10419000C0080AD400200190306C40F08050306498
:1041A000306C00F080500190019847F20007C4F293
:1041B00000073868C00547D4386840F4807038601C
:1041C000FEF75EFD054600BF3868C0053CD4FEF72B
:1041D00057FD401B0228F7D9032002B0BDE8F0814B
:1041E000B06800F00C00082803D1706840023FF569
:1041F00076AF61683068B1F5803F07D0B1F5A02F88
:1042000040F09A8040F480203060306840F4803084
:1042100030609AE0E068002840F20000C4F24720D5
:104220005CD001210160FEF72BFD05463068800758
:104230003FF574AFFEF724FD401B0228F6D903209A
:1042400002B0BDE8F08100BFA168306F012905D040
:10425000052955D140F004003067306F40F001006F
:10426000306756E00020C4F247200021C0F8801ECD
:10427000FEF706FD054600BF706F80077FF558AF5B
:10428000FEF7FEFC401B0228F6D9032002B0BDE871
:10429000F08100BF0027C4F2472700203866FEF7F0
:1042A000EFFC022D05460DD13068800140F18A8077
:1042B000FEF7E6FC401B02284FF00300F4D902B0E1
:1042C000BDE8F0813068800173D5FEF7D9FC401B52
:1042D00002284FF00300F5D9F1E700BF002101608B
:1042E000FEF7CEFC054600BF306880077FF51DAFA6
:1042F000FEF7C6FC401B02284FF00300F4D9DEE7AE
:1043000020F001003067306F002920F00400306792
:104310007AD0FEF7B5FC054641F28837306F80074A
:1043200000F18480FEF7ACFC401BB842F6D90320B4
:1043300002B0BDE8F08100BF20F48030306030680A
:10434000002920F4802030607AD0FEF799FC0546E1
:10435000306880033FF5CAAEFEF792FC401B64282C
:10436000F6D9032002B0BDE8F08100BF7068E169B2
:1043700000F480028A4221D1216A00F03F028A4281
:104380001CD147F6C071626A0140B1EB821F15D1A2
:10439000A16A4FF6FF73C903994300F44032A1F5B7
:1043A00080318A420AD1E16A00F07060B0EB016F9F
:1043B00004D1002002B0BDE8F08100BF012002B0AE
:1043C000BDE8F08104F11C052FCD084340EA8210BE
:1043D000D9034FF6FF729143A1F5803140EA0560A1
:1043E0000843706001203866FEF74AFC044600BFAF
:1043F00030688001DDD4FEF743FC001B02284FF03B
:104400000300F5D95BE700BFFEF73AFC054641F231
:10441000883700BF306F800708D5FEF731FC401B9E
:10442000B8424FF00300F5D949E700BFB8F1000FDB
:104430003FF581AE306C20F0805030647BE600BFE9
:10444000FEF71EFC054600BF306880037FF54EAEC8
:10445000FEF716FC401B64284FF00300F4D92EE74A
:10446000411E0020B0EB116F1CBF012070474EF2BF
:104470001002CEF2000251604EF62351CEF200013E
:10448000F0230B700721906011607047FEE7000079
:1044900070B50368044653F8140F400711D40E4654
:1044A000481C29D086BB00BF1868400527D4FEF7FA
:1044B000E7FB236853F8140F400737D51868400707
:1044C000F2D5002070BD00BF18684007F9D4186805
:1044D000400514D418684007F3D4186840050ED47A
:1044E00018684007EDD41868400508D418684007DC
:1044F0004FF0000048BF70BD18684005E4D56FF468
:1045000080601860042012E0154603E053F8140F91
:104510004007D6D418684005F1D4FEF7B1FB401B24
:104520002368B042F2D958694007EFD42020002117
:104530002022216322646164A26C1043A0640120E4
:10454000E16370BD2DE9F041054600681E46144642
:1045500001F47F0201338FB242D0DDF81880B2F54A
:10456000803F40F0858040693840C01BB0FA80F041
:104570004009A04240F0C2804EB924E04069384072
:10458000C01BB0FA80F04009A04240F0B780FEF7AF
:1045900077FBA0EB08012868B142EFD941693940A7
:1045A000C91BB1FA81F14909A142E7D199E000BFE5
:1045B00040693840C01BB0FA80F04009A0424FF07B
:1045C000000040F09C80FEF75BFB286841693940A1
:1045D000C91BB1FA81F14909A142E9D181E000BFCB
:1045E000B2F5803F22D100BF41693940C91BB1FA01
:1045F00081F14909A14240F0818041693940C91BDC
:10460000B1FA81F14909A14278D141693940C91B08
:10461000B1FA81F14909A14270D141693940C91B00
:10462000B1FA81F14909A142DED067E081693940E0
:10463000C91BB1FA81F14909A1425FD181693940B1
:10464000C91BB1FA81F14909A14257D181693940A9
:10465000C91BB1FA81F14909A1424FD181693940A1
:10466000C91BB1FA81F14909A142DFD046E000BF80
:1046700080693840C01BB0FA80F04009A0423DD1AB
:1046800046B923E080693840C01BB0FA80F0400989
:10469000A04233D1FEF7F4FAA0EB08012868B1423A
:1046A000F0D981693940C91BB1FA81F14909A142A8
:1046B000E8D116E080693840C01BB0FA80F04009AC
:1046C000A0424FF0000018BFBDE8F081FEF7D8FA15
:1046D000286881693940C91BB1FA81F14909A142B1
:1046E000E8D100202021286329646864A96C41F086
:1046F0002001A964E8630120BDE8F0810020BDE845
:10470000F0810000F0B581B0044600681D464369A1
:104710008FB203EA0701B94202D1002001B0F0BD17
:104720004169164601323AD0490512D46EB300BF32
:10473000FEF7A6FA411B2068B14203D9416939400E
:10474000B94229D141693940B942E6D041694905A8
:10475000EED5016841F4007101606FF48061416140
:10476000042000212022216322646164A26C104392
:10477000A064E163012001B0F0BD00BF4169394090
:10478000B942CAD041694905E3D4FEF779FA2068F5
:1047900041693940B942F1D02020E2E74169490539
:1047A000D7D441693940B942B7D041694905D0D41D
:1047B00041693940B942B0D041694905C9D441691C
:1047C0003940B942A9D041694905C2D4416939404B
:1047D000B942E3D1A1E7000070B504460068154670
:1047E00050F8143F5A0639D40E4629B924E000BFC8
:1047F00050F8141F490631D40168C9061FD4FEF7CA
:104800003FFA411B2068B142F2D941694906EFD411
:1048100000202021206321646064A06C40F020000F
:1048200016E000BFFEF72CFA206850F8141F490666
:10483000EED50168490611D40168C906F2D56FF0BA
:104840001001016000202021206321646064A06CBD
:10485000A0640020E063012070BD00BF002070BD97
:1048600070B50368044653F8140F000611D40E46C1
:10487000481C29D086BB00BF1868400527D4FEF726
:10488000FFF9236853F8140F000637D5186800069F
:10489000F2D5002070BD00BF18680006F9D4186872
:1048A000400514D418680006F3D4186840050ED4E7
:1048B00018680006EDD41868400508D4186800068A
:1048C0004FF0000048BF70BD18684005E4D56FF494
:1048D00080601860042012E0154603E053F8140FBE
:1048E0000006D6D418684005F1D4FEF7C9F9401B7C
:1048F0002368B042F2D958690006EFD42020002185
:104900002022216322646164A26C1043A064012010
:10491000E16370BDC06B01684A6822F003024A601F
:1049200000214185418601214164816C41F00801EB
:104930008164FEF72BBE0000C169C06B002918BF5F
:10494000FFF74AB801684A6822F001024A60002174
:10495000418601214164FFF73FB80000C06BFFF7BB
:104960007BB80000C169C06B002918BFFFF718B9F8
:1049700001684A6822F002024A6000214185012153
:104980004164FFF70DB90000C06BFFF70BB90000E1
:1049900010B584B001688A680392426C042A35D14C
:1049A000039AD20716D04A68520613D5CA68C36A5A
:1049B00023F8022BC362428E013A4286428E4AB9E4
:1049C0004A68044622F060024A6001214164FFF710
:1049D00003F820460399490618D501684A689206EB
:1049E00014D54A68044622F060024A60002202920E
:1049F000CA68029289680291029901214164816C1E
:104A000041F002018164FEF7C1FD2046416C03299B
:104A100017D1039989070DD501684A68120609D58F
:104A2000426A32F8023BCB604262428D013A4285D3
:104A3000428DEAB10399090703D501684A689206D5
:104A400002D404B010BD00BF4A6822F0A0024A6040
:104A50000022019289680191019901214164816CD0
:104A600041F00401816404B0BDE81040FEF78EBD42
:104A70004A68044622F0A0024A6001214164FFF71F
:104A80008FF8204603990907D7D4DAE7B0B540F28A
:104A90002854C2F200044FF48030254645F8080F30
:104AA0004AF2D630C7F670504FF00111C4E9030145
:104AB0002846FBF7EFFB0520C0F210000022206023
:104AC00028462146A280BDE8B040FBF7D7BC0000D5
:104AD000FEE70000FEE7000070470000704700009E
:104AE000FFF762B870B592B006AC20463021FDF7F2
:104AF0007DFB002543F640000595CDE90355CDE942
:104B000001550095C4F202000168022641F080516F
:104B10000160006800F080500090009847F20000AB
:104B20000095C4F20000016841F480410160006812
:104B300000F4804000900098012006904FF48030EF
:104B400007904FF480000D9004200E90A820CDE92E
:104B50000F060720119020460C96FFF7ABFA18B10C
:104B600072B600BFFEE700BF0F20CDE901064FF48B
:104B7000A05004904FF48050059001A805210395A2
:104B8000FFF79CF910B172B6FEE700BF12B070BD1E
:104B90004EF68850CEF20000016841F470010160C9
:104BA00070470000FEE7000098B0FFF70BF8FFF732
:104BB00099FF0120149032201590022000241690B5
:104BC00014A81794FFF7D4F810B172B6FEE700BF2F
:104BD00043F630001494C4F20200016843F6000664
:104BE00041F0800101600168002201F08001149110
:104BF000149914940168C4F2000641F004010160A4
:104C0000016801F00401149114991494016841F0B1
:104C100001010160016801F00101149114991494DB
:104C2000016841F002010160016801F00201149184
:104C300014991494016841F4001101600068002186
:104C400000F40010149014980E20FFF729F80E209D
:104C5000FFF716F8102000210022FFF721F810209E
:104C6000FFF70EF840F2207006F58061C2F20000F6
:104C70004FF400724BF6803380E81600C0E903421F
:104C8000C0E90534C0E90744FEF782FC10B172B6F2
:104C9000FEE700BF40F2C46406F5E050C2F2000433
:104CA00048F2A061C0F2010100274FF4804284E87D
:104CB00083002046C4E90372C4E90577C4E9077795
:104CC000FDF7E4FF10B172B6FEE700BF40F2704599
:104CD000C2F20005284640F80C6F4FF440714BF6C5
:104CE0008032C0E90117C0E90377C0E90527C0E9B0
:104CF0000777FEF74DFC18B172B600BFFEE700BFA4
:104D000006F5FC3028602846FDF7E2FC10B172B6CB
:104D1000FEE700BF55F80C0B816841F0010181608E
:104D2000FFF7B4FE00216846139104F110014C22F4
:104D300051F8043B043A40F8043BF9D194E80F00E1
:104D4000FDF7EEFA1E20FDF701FC0320FDF7C4FA83
:104D5000FDF740FC40F2EC71C2F2000128468022CF
:104D6000FEF7C0FD40F2207040F26C71C2F200000C
:104D7000C2F200014022FEF7ADFE00BFFEE7410097
:104D8000080218BF04200A0E18BF40F001004FF0BF
:104D90007F4232EA010108BF40F00200012808BF4B
:104DA0000520704710B510EE100A2DED068BB7EEFA
:104DB000001A10EE901AB0EE418A0022A0F5000C05
:104DC000DFEDFE9A4FF00073BCF1FE4F4FF07F44D1
:104DD00003EB410C80F0B481BCF1804FC0F0208225
:104DE000F74901449FEDF73AB1F5005F40F2D482F4
:104DF00000F58021CB0C03F00F0101EE901AC3F3F4
:104E000007137F3BA0EBC350B8EEE12A00EE100A77
:104E10001A44DFEDED2AF0EE411A42EE221AF0EECE
:104E2000613A70EE232A30EE632A12EE900A00F502
:104E300000606FF30B0001EE900A73EEE13A33EE7F
:104E4000804AC1EE223A22EE230A10EE100A00F543
:104E500000606FF30B0000EE100A00EE612A00EE16
:104E6000442A62EE232A70EE221A21EEA12ADFEDF7
:104E7000D73A02EE233A23EE023A20EE012A22EE3E
:104E8000811A03EE211A32EE010A10EE100A00F523
:104E900000606FF30B0000EE100A72EE401A31EE64
:104EA000812A9FEDCB1A60EE011A9FEDCA1A20EEFF
:104EB000011A9FEDC90A02EE001A31EE810A10EEC6
:104EC000100A00F500606FF30B0000EE100AC348F3
:104ED00071EEC01A31EE812A784400EBC10090EDEA
:104EE000003AD0ED011A100101EE100AF8EEC12AC5
:104EF00032EE211A31EE001A31EE031A31EE221A87
:104F000011EE100A00F500606FF30B0009EE100AB5
:104F100039EE621A31EE431A31EE400A30EE610A80
:104F200032EE40AA10EE900A002100F500606FF307
:104F30000B0008EE900A084670EEE8AA4FF0000059
:104F400029EE280A00F00C01F0EEC00A10EE900ADB
:104F5000B0F18B4F0DDD10EE900AB4EB400F08D38B
:104F600010EE100A4FF08B4262F31E0008EE900A1A
:104F700013E069EE2A0A38EEAA1A4AEE010A30EE68
:104F8000201A11EE100A00F500606FF30B0008EE16
:104F9000900A30EE680A70EE209A0C204FF0000064
:104FA00038EEA90AB5EEC00AF1EE10FA34BFFEEEF3
:104FB000000AF6EE000A30EE800ABDEEC00A10EEDE
:104FC000100A011100EE101AF8EEC00A00EE100AE5
:104FD000B8EEC00A38EEC00A30EE290ADFED801ABA
:104FE0009FED801A00EE211ADFED7F1A7F4900F055
:104FF0000F0040EE011A21EE800A794401EB800196
:1050000091ED001A7A49794401EB8001D1ED001A43
:10501000784901EE801A794401EB8000764990EDE1
:10502000000A31EE001AB0EEE00A10EE100A8842D3
:1050300015DA10EE100AB4EB400F10D39FED6F0A93
:1050400030EE800ADFED6E0A20EE200A68EE010ADB
:10505000BDEC068BBCEEC00A20EE200A10BD10EE9F
:10506000100A6849884243DA10EE100AB4EB400F88
:105070003ED3BDEEE00A68EE010A10EE100A00EB26
:10508000D0725110C90501F17E5100EE101AA0EB4B
:105090006200C00560EE200A00F17E5000EE100AAA
:1050A00060EE808A18EE900AB4EB400F0FD1022018
:1050B000FDF7CBF800F00CFA10EE101A18EE100AFB
:1050C000BDEC068B61F31E0000EE100A10BD18EE59
:1050D000900A400011D018EE900AFFF750FE042805
:1050E00008BF00F0FDF9B0EE680ABDEC068B10BDFC
:1050F000F5EEC00AF1EE10FA0FD20220FDF7A5F886
:1051000000F0EEF910EE101A18EE100ABDEC068B46
:1051100061F31E0000EE100A10BD0220FDF795F8A5
:1051200000F0D6F910EE101AB0EE480A10EE100A90
:10513000BDEC068B61F31E0000EE100A10BD00BF2F
:10514000BCF1804F6CD300BF00F1FF43B3F1FE4FC1
:1051500024D200BFB0EEC00A10EE100AC1F3C7534C
:105160007F2B0DDB972BBFF63BAEC3F196034FF0C1
:10517000010C0CFA03F3A3F1010C1CEA010F08D097
:105180000120FDF762F8BDEC068BBDE8104000F091
:1051900097B90B4218BFBFEE008A21E643001CBF3F
:1051A0004FF08073B3EB400F34D96FF01A02DFED8C
:1051B000161A20EE210A10EE100A27E00000000067
:1051C000001080C0ABAAAA3E0000803D7EE24C3EAB
:1051D00000B03842D49AB8BB3BAA3842400700001E
:1051E000FC596337C9FF753A1872313DDE0600007D
:1051F00012070000820600000000FC420000FE4290
:105200000000004B000040430000004D10F0004F34
:10521000A0D1E5E5A0F50003B3F1FE4F21D2DFE513
:1052200003EB4103B3F1007F11D3F5EEC00AF1EEB9
:1052300010FA05D1430018BFB4EB400F76D883E7CE
:1052400001F0004141F0FC5100EE901A7CE7B3F10F
:10525000807F06D210EE903AA3F5000300EE903A5C
:1052600072E720F000426FF0FF4C604C02EB0C0341
:10527000A34210D321F000439C44A4450BD3B0F1CA
:105280007E5F18BF5FEA410C50D0B2F1FF4F98BF6C
:10529000B3F1FF4F05D9BDEC068BBDE8104000F01F
:1052A0000BB9B0F1FF4F0FD0C1F3C7527F2A09DB12
:1052B000972A11DAC2F19602012303FA02F2531E71
:1052C0000B4205D0002208E011F0004F55D128E034
:1052D0000A4218BF012200D1022210F5000F13D09C
:1052E00028B3B0F1004F26D010F1814F4FD04FF0CE
:1052F000FE42B2EB400F94BF01200020012202EBDE
:10530000E171884239D10CE011F0004F02D0012A3E
:1053100038D032E0012A02BF9FED350ABDEC068B82
:1053200010BD9FED340ABDEC068B10BD2FE011F0CF
:10533000004F0CD121E0B1F1FF4F1ED011F5000F4D
:1053400005D011F0004F15D00AB1012A08D0022073
:10535000FCF77BFFBDEC068BBDE8104000F0A2B867
:105360000220FCF772FF00F09DF8BDEC068BB1EE59
:10537000400A10BD0AB1012A04D0B0EE690ABDECA2
:10538000068B10BDBDEC068B9FED1B0A10BDBDEC5E
:10539000068BB7EE000A10BD30EE410AB5EE001ADA
:1053A0009FED172A00EE413AB6EE001A60EE001AA1
:1053B00000EE431A61EEC11A9FED101A20EE011A99
:1053C00020EE020A9FED0F2A01EE820A71EE001A0A
:1053D00011EE900A00F500606FF30B0009EE100A61
:1053E00031EE491A31EE00AA9CE50000FFFF3F00B4
:1053F000000080FF0000807F0000008000B0B84106
:10540000D49A38BB3BAAB84110B52DED028BB0EE53
:10541000408A18EE100A00F0D1F801EE100A18EEDA
:10542000100AB7EE000A78EE410A10F0004F4FF074
:105430007F4010EE901A12D0B1F13F4F24BF10EE12
:10544000901AB0EB410F12D210EE901AB1F17C5FBE
:105450001CDD10EE901AB0EB410F17D314E0B1F140
:105460003F4F07D910EE901AB0EB410F02D331EE47
:10547000401A0BE010EE901AB1F17C5F06DB10EEE3
:10548000901AB0EB410F01D331EE001A18EE100A5A
:10549000BDEC028B11EE101A61F31E0000EE100A33
:1054A00010BD0000DFED030AB7EE001A81EE200AFE
:1054B000704700000000000030EE200A7047000036
:1054C000DFED020A80EEA00A704700000000000035
:1054D0009FED020A20EE000A7047000000000070F5
:1054E0009FED020A20EE000A704700000000001045
:1054F00010B500EE100A00EE901AFFF753FC10EE04
:10550000100A10BD10B500EE100AFFF77DFF10EE77
:10551000100A10BD0EF1020E2EF0030E5EF8044BC1
:10552000244204D44FEA4102B2F17F4F11D84FEA2E
:105530004003B3F17F4F0CD80ED14FEAD07C0CEB77
:105540004C0C0CF1020CB2F17F4F08BF4CEBD17C3C
:1055500004E04FF0080C01E04FEAD17C0CEB4C0367
:1055600024FA03F404F00704B4F1040C06D20EEBA1
:10557000840CBDE810404CF0010C6047DFE80CF0F3
:10558000070802024FF00040A0F5800010BD084659
:10559000420018BFD2F1807288BF00F0004010BDF9
:1055A000F1EE100A4FF6FF71C0F2C03120EA01009F
:1055B00040F04070E1EE100A704700005FEA400CD6
:1055C0005FEA1C6CBCF17F0314D4D3F1170240F3E3
:1055D0001C804FF0010C0CFA02FCACF101030340FB
:1055E00020EA0300B3EB5C0208BF10EA0C0F88BF8F
:1055F00060447047B3F1FF3F28BF5FEA002C00F022
:10560000004088BF40F07E507047BCF1FF0FB8BF2C
:10561000704710B5FFF77EFF40DBB6BE000000000C
:10562000000000000000B33FB2BE7D3A00002E40F3
:10563000DFCF513800007E40BF51FABA00E0A440ED
:1056400019DAC3BA00E0C840C2ED8AB90040EB40A5
:10565000CD1F2CBA001006412AFFFABA00C015412E
:10566000DFCFD13700D024419A97703A00503341B0
:1056700089478E3600404141E75B9D3800B04E417E
:10568000C00A98B900A05B41558F943A0030684138
:10569000DA92C0BA0040744162B3C63A0000803F5B
:1056A00000A0853F00908B3F00C0913F0030983FA5
:1056B00000F09E3F00F0A53F0050AD3F0000B53F19
:1056C0000000BD3F0060C53F0020CE3F0040D73FF7
:1056D00000C0E03F00C0EA3F0020F53F00000000AE
:1056E0007D36AC397D3C3839EBDCF438320A7E3912
:1056F000124C26399B6AED39A4EE83397F661E3938
:10570000F6398A392B426539A48211395B991F39E0
:10571000C3EECD39DDE7C637A5A22F390000803FA3
:10572000C3AA853FC2958B3FD3C3913FF037983FC3
:1057300032F59E3FD7FEA53F3F58AD3FF304B53F3E
:10574000A408BD3F2A67C53F8C24CE3FFD44D73F08
:10575000DFCCE03FC7C0EA3F7D25F53F00000000F9
:105760000000000001020304060708090000000011
:10577000010203040006101600061016A0570008C8
:105780000000002010040000EC010008B05B0008DD
:1057900010040020E00A00000C02000800000000D5
:1057A00000000000000000000090C00101A85001AE
:1057B0000138110303B8F0000348B102046041024C
:1057C00004F0010406C0A000065061020768F10160
:1057D00007F8B10309789101090852030A20E2028F
:1057E0000AB0A2040AC060000A5021020B68B1018D
:1057F0000BF871030D7851010D0812030E20A2025F
:105800000EB06204108001011010C2021128520271
:1058100011B812041338F20113C8B20314E04203A2
:10582000147003050FB830000F48F10110608101BA
:1058300010F04103127021011200E20213187202EB
:1058400013A832041578D1001508920216202202FE
:1058500016B0E2031830C20118C0820319D812032F
:105860001968D30419789100190852021A20E2012C
:105870001AB0A2031C3082011CC042031DD8D20200
:105880001D6893041F3832011FC8F20220E0820213
:105890002070430422F022022280E3032398730342
:1058A0002328340515A810001538D10116506101C0
:1058B00016E021031860010118F0C1021908520214
:1058C000199812041B68B1001BF871021C10020227
:1058D0001CA0C2031E20A2011EB062031FC8F20258
:1058E0001F58B3041F6871001FF831022010C20155
:1058F00020A082032220620122B0220323C8B20228
:10590000235873042528120125B8D20226D062023A
:105910002660230428E002022870C3032988530369
:10592000291814052460410024F001022508920181
:10593000259852032718320127A8F20228C08202B4
:10594000285043042A20E2002AB0A2022BC83202C7
:105950002B58F3032DD8D2012D6893032E802303F7
:105960002E10E4042E20A2002EB062022FC8F201F5
:105970002F58B30331D89201316853033280E302C8
:105980003210A40434E042013470030335889302DA
:1059900035185404379833023728F4033840840309
:1059A00038D044051C9000001C20C1011D38510155
:1059B0001DC811031F48F1001FD8B10220F0410299
:1059C000208002042250A10022E0610223F8F101AC
:1059D0002388B203250892012598520326B0E202DB
:1059E0002640A3042650610026E0210227F8B101D9
:1059F0002788720329085201299812032AB0A202AB
:105A00002A4063042C1002012CA0C2022DB85202BD
:105A10002D4813042FC8F2012F58B30330704303ED
:105A2000300004052B4831002BD8F1012CF0810106
:105A30002C8042032E0022012E90E2022FA8720237
:105A40002F3833043108D2003198920232B022024A
:105A50003240E30334C0C20134508303356813037A
:105A600035F8D304350892003598520236B0E20179
:105A70003640A30338C08201385043033968D3024B
:105A800039F893043BC832013B58F3023C7083025F
:105A90003C0044043E8023023E10E4033F2874038C
:105AA0003FB834053138110031C8D10132E061010D
:105AB0003270220334F001013480C2023598520260
:105AC0003528130437F8B1003788720238A0020273
:105AD0003830C3033AB0A2013A4063033B58F302A3
